S01200004B61726153696D73656B2E7372656327
S11300000C9434000C943E000C943E000C943E007E
S11300100C943E000C943E000C943E000C943E0064
S11300200C943E000C943E000C943E000C943E0054
S11300300C943E000C943E000C943E000C943E0044
S11300400C943E000C943E000C943E000C943E0034
S11300500C943E000C943E000C943E000C943E0024
S11300600C943E000C943E0011241FBECFEFD8E048
S1130070DEBFCDBF0E9440000C9477000C940000BA
S11300808FEF8AB961E070E080E090E04BB19B01B2
S1130090082E02C0220F331F0A94E2F7242B2BB937
S11300A02FEF32E547E0215030404040E1F700C0F7
S11300B0000001968830910549F787E090E02FEF22
S11300C032E547E0215030404040E1F700C00000F5
S11300D03BB1AB01082E02C0440F551F0A94E2F74E
S11300E0242F209523232BB9019748F7CDCFF894DB
S10500F0FFCF3C
S9030000FC
