S01B0000426974776973654F70657261746F726C6572692E737265633A
S11300000C9434000C943E000C943E000C943E007E
S11300100C943E000C943E000C943E000C943E0064
S11300200C943E000C943E000C943E000C943E0054
S11300300C943E000C943E000C943E000C943E0044
S11300400C943E000C943E000C943E000C943E0034
S11300500C943E000C943E000C943E000C943E0024
S11300600C943E000C943E0011241FBECFEFD8E048
S1130070DEBFCDBF0E9440000C9457000C940000DA
S113008080E184B92C9A2FEF81EE94E021508040D6
S11300909040E1F700C000002C982FEF81EE94E02F
S11300A0215080409040E1F700C00000EBCFF8946D
S10500B0FFCF7C
S9030000FC
