S01A00004475676D65796C655975727579656E4C65642E73726563B8
S11300000C9434000C943E000C943E000C943E007E
S11300100C943E000C943E000C943E000C943E0064
S11300200C943E000C943E000C943E000C943E0054
S11300300C943E000C943E000C943E000C943E0044
S11300400C943E000C943E000C943E000C943E0034
S11300500C943E000C943E000C943E000C943E0024
S11300600C943E000C943E0011241FBECFEFD8E048
S1130070DEBFCDBF0E9440000C9479000C940000B8
S11300808FEF84B98AB18AB98BB18C608BB935B1E1
S113009025B181E090E002C0880F991F3A95E2F7FC
S11300A0822B85B980E090E04A9910C08530910593
S11300B06CF425B1220F25B901962FEF34E34CE0FF
S11300C0215030404040E1F700C000004B99ECCF94
S11300D0181619064CF725B1269525B901972FEF67
S11300E034E34CE0215030404040E1F700C00000D0
S10900F0DBCFF894FFCF02
S9030000FC
